:020000002100DD
:1001000075812FC294C2959000011201699000027E
:1001100012016990000412016990000812016990AF
:100120000010120169900020120169900040120134
:10013000699000801201699001001201699002002B
:10014000120169900400120169900800120169907F
:100150001000120169902000120169904000120104
:1001600069908000120169809EE582120186E58314
:10017000120186C2A5D2A51201947F0A7E01120146
:10018000E0DEFBDFF72275F0081392A7C2A6D2A625
:10019000D5F0F62274101201AEE5831201A4E582B7
:1001A0001201A422C0E0C41201ACD0E0540FC083FD
:1001B000C0829001CF93F4F580D082D0837F01126A
:1001C00001E0DFFB7580FF7F011201E0DFFB22779A
:1001D000116D5D1B5E7E157F5F3F7A66796E2E081E
:0C01E00075F00174FAD5E0FDD5F0FA22AC
:00000001FF
