:020000002100DD
:10010000C2AF75813FD2A0C294C29512011E1201E6
:10011000397F0A7E01120185DEFBDFF780EDC2A286
:10012000D2A212012DF52112012DF520227808A26C
:10013000A013C2A1D2A1D8F7227410120153E52056
:10014000120149E52112014922C0E0C4120151D037
:10015000E0540FC083C08290017493F4F580D08284
:10016000D0837F01120185DFFB7580FF7F011201C3
:1001700085DFFB2277116D5D1B5E7E157F5F3F7A09
:1001800066796E2E0875F00174FAD5E0FDD5F0FAA7
:01019000224C
:00000001FF
